{
  "contractName": "Mortgage",
  "abi": [
    {
      "inputs": [],
      "stateMutability": "nonpayable",
      "type": "constructor"
    },
    {
      "anonymous": false,
      "inputs": [
        {
          "indexed": false,
          "internalType": "address",
          "name": "borrower",
          "type": "address"
        },
        {
          "indexed": false,
          "internalType": "uint256",
          "name": "amount",
          "type": "uint256"
        },
        {
          "indexed": false,
          "internalType": "uint256",
          "name": "interestRate",
          "type": "uint256"
        },
        {
          "indexed": false,
          "internalType": "uint256",
          "name": "duration",
          "type": "uint256"
        },
        {
          "indexed": false,
          "internalType": "uint256",
          "name": "monthlyPayment",
          "type": "uint256"
        }
      ],
      "name": "LoanInitialized",
      "type": "event"
    },
    {
      "anonymous": false,
      "inputs": [
        {
          "indexed": false,
          "internalType": "address",
          "name": "borrower",
          "type": "address"
        },
        {
          "indexed": false,
          "internalType": "uint256",
          "name": "amount",
          "type": "uint256"
        },
        {
          "indexed": false,
          "internalType": "uint256",
          "name": "balanceDue",
          "type": "uint256"
        }
      ],
      "name": "PaymentMade",
      "type": "event"
    },
    {
      "inputs": [],
      "name": "balanceDue",
      "outputs": [
        {
          "internalType": "uint256",
          "name": "",
          "type": "uint256"
        }
      ],
      "stateMutability": "view",
      "type": "function"
    },
    {
      "inputs": [],
      "name": "borrower",
      "outputs": [
        {
          "internalType": "address payable",
          "name": "",
          "type": "address"
        }
      ],
      "stateMutability": "view",
      "type": "function"
    },
    {
      "inputs": [],
      "name": "interestRate",
      "outputs": [
        {
          "internalType": "uint256",
          "name": "",
          "type": "uint256"
        }
      ],
      "stateMutability": "view",
      "type": "function"
    },
    {
      "inputs": [],
      "name": "lender",
      "outputs": [
        {
          "internalType": "address payable",
          "name": "",
          "type": "address"
        }
      ],
      "stateMutability": "view",
      "type": "function"
    },
    {
      "inputs": [],
      "name": "loanActive",
      "outputs": [
        {
          "internalType": "bool",
          "name": "",
          "type": "bool"
        }
      ],
      "stateMutability": "view",
      "type": "function"
    },
    {
      "inputs": [],
      "name": "loanAmount",
      "outputs": [
        {
          "internalType": "uint256",
          "name": "",
          "type": "uint256"
        }
      ],
      "stateMutability": "view",
      "type": "function"
    },
    {
      "inputs": [],
      "name": "loanDuration",
      "outputs": [
        {
          "internalType": "uint256",
          "name": "",
          "type": "uint256"
        }
      ],
      "stateMutability": "view",
      "type": "function"
    },
    {
      "inputs": [],
      "name": "monthlyPayment",
      "outputs": [
        {
          "internalType": "uint256",
          "name": "",
          "type": "uint256"
        }
      ],
      "stateMutability": "view",
      "type": "function"
    },
    {
      "inputs": [
        {
          "internalType": "address payable",
          "name": "_borrower",
          "type": "address"
        },
        {
          "internalType": "uint256",
          "name": "_amount",
          "type": "uint256"
        },
        {
          "internalType": "uint256",
          "name": "_interestRate",
          "type": "uint256"
        },
        {
          "internalType": "uint256",
          "name": "_duration",
          "type": "uint256"
        },
        {
          "internalType": "uint256",
          "name": "_monthlyPayment",
          "type": "uint256"
        }
      ],
      "name": "initializeLoan",
      "outputs": [],
      "stateMutability": "nonpayable",
      "type": "function"
    },
    {
      "inputs": [],
      "name": "makePayment",
      "outputs": [],
      "stateMutability": "payable",
      "type": "function"
    }
  ],
  "bytecode": "0x60806040525f60075f6101000a81548160ff021916908315150217905550348015610028575f80fd5b50335f806101000a81548173ffffffffffffffffffffffffffffffffffffffff021916908373ffffffffffffffffffffffffffffffffffffffff160217905550610e1c806100755f395ff3fe608060405260043610610090575f3560e01c80639d585f7f116100585780639d585f7f14610164578063bcead63e1461018e578063d8d79700146101b8578063f5521bf1146101c2578063f75dbeef146101ec57610090565b806348b75090146100945780635754f6c1146100be5780637c3a00fd146100e65780637df1f1b9146101105780638e6a99bb1461013a575b5f80fd5b34801561009f575f80fd5b506100a8610216565b6040516100b591906106ea565b60405180910390f35b3480156100c9575f80fd5b506100e460048036038101906100df9190610794565b610228565b005b3480156100f1575f80fd5b506100fa6104cf565b604051610107919061081a565b60405180910390f35b34801561011b575f80fd5b506101246104d5565b6040516101319190610842565b60405180910390f35b348015610145575f80fd5b5061014e6104fa565b60405161015b919061081a565b60405180910390f35b34801561016f575f80fd5b50610178610500565b604051610185919061081a565b60405180910390f35b348015610199575f80fd5b506101a2610506565b6040516101af9190610842565b60405180910390f35b6101c0610529565b005b3480156101cd575f80fd5b506101d66106c4565b6040516101e3919061081a565b60405180910390f35b3480156101f7575f80fd5b506102006106ca565b60405161020d919061081a565b60405180910390f35b60075f9054906101000a900460ff1681565b5f8054906101000a900473ffffffffffffffffffffffffffffffffffffffff1673ffffffffffffffffffffffffffffffffffffffff163373ffffffffffffffffffffffffffffffffffffffff16146102b5576040517f08c379a00000000000000000000000000000000000000000000000000000000081526004016102ac906108db565b60405180910390fd5b60075f9054906101000a900460ff1615610304576040517f08c379a00000000000000000000000000000000000000000000000000000000081526004016102fb90610943565b60405180910390fd5b5f8411610346576040517f08c379a000000000000000000000000000000000000000000000000000000000815260040161033d906109d1565b60405180910390fd5b5f8311610388576040517f08c379a000000000000000000000000000000000000000000000000000000000815260040161037f90610a39565b60405180910390fd5b5f82116103ca576040517f08c379a00000000000000000000000000000000000000000000000000000000081526004016103c190610aa1565b60405180910390fd5b5f811161040c576040517f08c379a000000000000000000000000000000000000000000000000000000000815260040161040390610b2f565b60405180910390fd5b8460015f6101000a81548173ffffffffffffffffffffffffffffffffffffffff021916908373ffffffffffffffffffffffffffffffffffffffff1602179055508360028190555082600381905550816004819055508060058190555083600681905550600160075f6101000a81548160ff0219169083151502179055507f18b77238e14695292cf3ff5411d113ed8271dc906125bcdc91799171668a096485858585856040516104c0959493929190610ba8565b60405180910390a15050505050565b60035481565b60015f9054906101000a900473ffffffffffffffffffffffffffffffffffffffff1681565b60065481565b60025481565b5f8054906101000a900473ffffffffffffffffffffffffffffffffffffffff1681565b60015f9054906101000a900473ffffffffffffffffffffffffffffffffffffffff1673ffffffffffffffffffffffffffffffffffffffff163373ffffffffffffffffffffffffffffffffffffffff16146105b8576040517f08c379a00000000000000000000000000000000000000000000000000000000081526004016105af90610c43565b60405180910390fd5b60075f9054906101000a900460ff16610606576040517f08c379a00000000000000000000000000000000000000000000000000000000081526004016105fd90610cab565b60405180910390fd5b600554341461064a576040517f08c379a000000000000000000000000000000000000000000000000000000000815260040161064190610d13565b60405180910390fd5b3460065f82825461065b9190610d5e565b925050819055505f60065403610685575f60075f6101000a81548160ff0219169083151502179055505b7fc65a4e529c0450a515882508bea7ee3485fbfdf8436e0bd13dc38dfbc859b1cb33346006546040516106ba93929190610db1565b60405180910390a1565b60045481565b60055481565b5f8115159050919050565b6106e4816106d0565b82525050565b5f6020820190506106fd5f8301846106db565b92915050565b5f80fd5b5f73ffffffffffffffffffffffffffffffffffffffff82169050919050565b5f61073082610707565b9050919050565b61074081610726565b811461074a575f80fd5b50565b5f8135905061075b81610737565b92915050565b5f819050919050565b61077381610761565b811461077d575f80fd5b50565b5f8135905061078e8161076a565b92915050565b5f805f805f60a086880312156107ad576107ac610703565b5b5f6107ba8882890161074d565b95505060206107cb88828901610780565b94505060406107dc88828901610780565b93505060606107ed88828901610780565b92505060806107fe88828901610780565b9150509295509295909350565b61081481610761565b82525050565b5f60208201905061082d5f83018461080b565b92915050565b61083c81610726565b82525050565b5f6020820190506108555f830184610833565b92915050565b5f82825260208201905092915050565b7f4f6e6c79206c656e6465722063616e20696e697469616c697a6520746865206c5f8201527f6f616e2e00000000000000000000000000000000000000000000000000000000602082015250565b5f6108c560248361085b565b91506108d08261086b565b604082019050919050565b5f6020820190508181035f8301526108f2816108b9565b9050919050565b7f4c6f616e20616c726561647920696e697469616c697a65642e000000000000005f82015250565b5f61092d60198361085b565b9150610938826108f9565b602082019050919050565b5f6020820190508181035f83015261095a81610921565b9050919050565b7f4c6f616e20616d6f756e74206d7573742062652067726561746572207468616e5f8201527f20302e0000000000000000000000000000000000000000000000000000000000602082015250565b5f6109bb60238361085b565b91506109c682610961565b604082019050919050565b5f6020820190508181035f8301526109e8816109af565b9050919050565b7f496e7465726573742072617465206d75737420626520706f7369746976652e005f82015250565b5f610a23601f8361085b565b9150610a2e826109ef565b602082019050919050565b5f6020820190508181035f830152610a5081610a17565b9050919050565b7f4c6f616e206475726174696f6e206d75737420626520706f7369746976652e005f82015250565b5f610a8b601f8361085b565b9150610a9682610a57565b602082019050919050565b5f6020820190508181035f830152610ab881610a7f565b9050919050565b7f4d6f6e74686c79207061796d656e74206d75737420626520706f7369746976655f8201527f2e00000000000000000000000000000000000000000000000000000000000000602082015250565b5f610b1960218361085b565b9150610b2482610abf565b604082019050919050565b5f6020820190508181035f830152610b4681610b0d565b9050919050565b5f819050919050565b5f610b70610b6b610b6684610707565b610b4d565b610707565b9050919050565b5f610b8182610b56565b9050919050565b5f610b9282610b77565b9050919050565b610ba281610b88565b82525050565b5f60a082019050610bbb5f830188610b99565b610bc8602083018761080b565b610bd5604083018661080b565b610be2606083018561080b565b610bef608083018461080b565b9695505050505050565b7f4f6e6c7920626f72726f7765722063616e206d616b65207061796d656e74732e5f82015250565b5f610c2d60208361085b565b9150610c3882610bf9565b602082019050919050565b5f6020820190508181035f830152610c5a81610c21565b9050919050565b7f4c6f616e206e6f74206163746976652e000000000000000000000000000000005f82015250565b5f610c9560108361085b565b9150610ca082610c61565b602082019050919050565b5f6020820190508181035f830152610cc281610c89565b9050919050565b7f496e636f7272656374207061796d656e7420616d6f756e742e000000000000005f82015250565b5f610cfd60198361085b565b9150610d0882610cc9565b602082019050919050565b5f6020820190508181035f830152610d2a81610cf1565b9050919050565b7f4e487b71000000000000000000000000000000000000000000000000000000005f52601160045260245ffd5b5f610d6882610761565b9150610d7383610761565b9250828203905081811115610d8b57610d8a610d31565b5b92915050565b5f610d9b82610707565b9050919050565b610dab81610d91565b82525050565b5f606082019050610dc45f830186610da2565b610dd1602083018561080b565b610dde604083018461080b565b94935050505056fea264697066735822122067d640d1df39342844a63ef31c3757a1b53284971a9527fe60f38bdfcc3bcea564736f6c63430008150033",
  "immutableReferences": {},
  "source": "// SPDX-License-Identifier: MIT\npragma solidity >=0.4.22 <0.9.0;\n\ncontract Mortgage {\n    address payable public lender;\n    address payable public borrower;\n    uint public loanAmount;\n    uint public interestRate; // Assuming this is an annual rate, could be represented as a percentage times 100 (e.g., 5% as 500 to allow for decimal percentages)\n    uint public loanDuration; // In months, for example\n    uint public monthlyPayment;\n    uint public balanceDue;\n    bool public loanActive = false;\n\n    // Event declarations (optional but recommended for transparency)\n    event LoanInitialized(address borrower, uint amount, uint interestRate, uint duration, uint monthlyPayment);\n    event PaymentMade(address borrower, uint amount, uint balanceDue);\n\n    // Constructor to set the lender at contract deployment\n    constructor() {\n        lender = payable(msg.sender); // The deployer of the contract is the lender\n    }\n\n    // Initialize loan terms\n    function initializeLoan(address payable _borrower, uint _amount, uint _interestRate, uint _duration, uint _monthlyPayment) public {\n        require(msg.sender == lender, \"Only lender can initialize the loan.\");\n        require(!loanActive, \"Loan already initialized.\");\n        require(_amount > 0, \"Loan amount must be greater than 0.\");\n        require(_interestRate > 0, \"Interest rate must be positive.\");\n        require(_duration > 0, \"Loan duration must be positive.\");\n        require(_monthlyPayment > 0, \"Monthly payment must be positive.\");\n\n        borrower = _borrower;\n        loanAmount = _amount;\n        interestRate = _interestRate;\n        loanDuration = _duration;\n        monthlyPayment = _monthlyPayment;\n        balanceDue = _amount;\n        loanActive = true;\n\n        emit LoanInitialized(_borrower, _amount, _interestRate, _duration, _monthlyPayment); // Emitting event\n    }\n\n    // Make a payment towards the loan\n    function makePayment() public payable {\n        require(msg.sender == borrower, \"Only borrower can make payments.\");\n        require(loanActive, \"Loan not active.\");\n        require(msg.value == monthlyPayment, \"Incorrect payment amount.\");\n\n        balanceDue -= msg.value; // Assuming `msg.value` is the payment amount\n        if (balanceDue == 0) {\n            loanActive = false;\n        }\n\n        emit PaymentMade(msg.sender, msg.value, balanceDue); // Emitting event\n    }\n}\n",
  "sourcePath": "C:\\Users\\Jason\\OneDrive\\project\\SmartContract\\contracts\\Mortgage.sol",
  "compiler": {
    "name": "solc",
    "version": "0.8.21+commit.d9974bed.Emscripten.clang"
  },
  "schemaVersion": "3.4.16",
  "updatedAt": "2024-04-06T15:32:26.274Z",
  "devdoc": {
    "kind": "dev",
    "methods": {},
    "version": 1
  },
  "userdoc": {
    "kind": "user",
    "methods": {},
    "version": 1
  }
}